{
  "transactions": [
    {
      "hash": "0x853775f7270bd74d7ba51a0de37c3f654deacbf4be04e35029c6da032b3a734e",
      "transactionType": "CALL",
      "contractName": null,
      "contractAddress": "0x779877a7b0d9e8603169ddbd7836e478b4624789",
      "function": "transferAndCall(address,uint256,bytes)",
      "arguments": [
        "0x9DdfaCa8183c41ad55329BdeeD9F6A8d53168B1B",
        "3000000000000000000",
        "0xc1b50b0c0b3839df38fc11df985db8f31bf2fd6687afa207749095a185346fa6"
      ],
      "transaction": {
        "from": "0x6322784397059eb83b2d1a5834a581060b5cc951",
        "to": "0x779877a7b0d9e8603169ddbd7836e478b4624789",
        "gas": "0x1c1ff",
        "value": "0x0",
        "input": "0x4000aea00000000000000000000000009ddfaca8183c41ad55329bdeed9f6a8d53168b1b00000000000000000000000000000000000000000000000029a2241af62c000000000000000000000000000000000000000000000000000000000000000000600000000000000000000000000000000000000000000000000000000000000020c1b50b0c0b3839df38fc11df985db8f31bf2fd6687afa207749095a185346fa6",
        "nonce": "0x2",
        "chainId": "0xaa36a7"
      },
      "additionalContracts": [],
      "isFixedGasLimit": false
    }
  ],
  "receipts": [
    {
      "status": "0x1",
      "cumulativeGasUsed": "0x139d07e",
      "logs": [
        {
          "address": "0x779877a7b0d9e8603169ddbd7836e478b4624789",
          "topics": [
            "0xddf252ad1be2c89b69c2b068fc378daa952ba7f163c4a11628f55a4df523b3ef",
            "0x0000000000000000000000006322784397059eb83b2d1a5834a581060b5cc951",
            "0x0000000000000000000000009ddfaca8183c41ad55329bdeed9f6a8d53168b1b"
          ],
          "data": "0x00000000000000000000000000000000000000000000000029a2241af62c0000",
          "blockHash": "0xc285337e4424999426fd967e3218ae10546d2bdd994b6c91adbebc6b02c52e51",
          "blockNumber": "0x6730e8",
          "transactionHash": "0x853775f7270bd74d7ba51a0de37c3f654deacbf4be04e35029c6da032b3a734e",
          "transactionIndex": "0x69",
          "logIndex": "0xed",
          "removed": false
        },
        {
          "address": "0x779877a7b0d9e8603169ddbd7836e478b4624789",
          "topics": [
            "0xe19260aff97b920c7df27010903aeb9c8d2be5d310a2c67824cf3f15396e4c16",
            "0x0000000000000000000000006322784397059eb83b2d1a5834a581060b5cc951",
            "0x0000000000000000000000009ddfaca8183c41ad55329bdeed9f6a8d53168b1b"
          ],
          "data": "0x00000000000000000000000000000000000000000000000029a2241af62c000000000000000000000000000000000000000000000000000000000000000000400000000000000000000000000000000000000000000000000000000000000020c1b50b0c0b3839df38fc11df985db8f31bf2fd6687afa207749095a185346fa6",
          "blockHash": "0xc285337e4424999426fd967e3218ae10546d2bdd994b6c91adbebc6b02c52e51",
          "blockNumber": "0x6730e8",
          "transactionHash": "0x853775f7270bd74d7ba51a0de37c3f654deacbf4be04e35029c6da032b3a734e",
          "transactionIndex": "0x69",
          "logIndex": "0xee",
          "removed": false
        },
        {
          "address": "0x9ddfaca8183c41ad55329bdeed9f6a8d53168b1b",
          "topics": [
            "0x1ced9348ff549fceab2ac57cd3a9de38edaaab274b725ee82c23e8fc8c4eec7a",
            "0xc1b50b0c0b3839df38fc11df985db8f31bf2fd6687afa207749095a185346fa6"
          ],
          "data": "0x000000000000000000000000000000000000000000000000000000000000000000000000000000000000000000000000000000000000000029a2241af62c0000",
          "blockHash": "0xc285337e4424999426fd967e3218ae10546d2bdd994b6c91adbebc6b02c52e51",
          "blockNumber": "0x6730e8",
          "transactionHash": "0x853775f7270bd74d7ba51a0de37c3f654deacbf4be04e35029c6da032b3a734e",
          "transactionIndex": "0x69",
          "logIndex": "0xef",
          "removed": false
        }
      ],
      "logsBloom": "0x00000004000000000000000000000000000000000020000000000000020000000000000000000000000000000000008000000000000000000000000000000000000000000000000000000008000000000000000000000000000020000020000008000000000000000000000000000000000000000000000000000010000044000000000000000000000000010000800000000020000000004000000000000000000000000000080000000000010000000000000000000000000004000000000000000002000000000000000000000000000000000000000100000000000000000010000000000000800000001000000000000000000000000000000000000002",
      "type": "0x2",
      "transactionHash": "0x853775f7270bd74d7ba51a0de37c3f654deacbf4be04e35029c6da032b3a734e",
      "transactionIndex": "0x69",
      "blockHash": "0xc285337e4424999426fd967e3218ae10546d2bdd994b6c91adbebc6b02c52e51",
      "blockNumber": "0x6730e8",
      "gasUsed": "0x133b1",
      "effectiveGasPrice": "0x20db45171a",
      "from": "0x6322784397059eb83b2d1a5834a581060b5cc951",
      "to": "0x779877a7b0d9e8603169ddbd7836e478b4624789",
      "contractAddress": null
    }
  ],
  "libraries": [],
  "pending": [],
  "returns": {},
  "timestamp": 1727348545,
  "chain": 11155111,
  "commit": "60a8eca"
}