{
  "transactions": [
    {
      "hash": "0xf41b0445c0a2dd618b885f18a929b321bdefbf343ad17d47775b87cf78d334d8",
      "transactionType": "CALL",
      "contractName": null,
      "contractAddress": "0x779877a7b0d9e8603169ddbd7836e478b4624789",
      "function": "transferAndCall(address,uint256,bytes)",
      "arguments": [
        "0x9DdfaCa8183c41ad55329BdeeD9F6A8d53168B1B",
        "3000000000000000000",
        "0xba2601fa5364be89bc2b7751c65d50e663bb2e5097502c6e0bbd6b9fe7a0a9c8"
      ],
      "transaction": {
        "from": "0x6322784397059eb83b2d1a5834a581060b5cc951",
        "to": "0x779877a7b0d9e8603169ddbd7836e478b4624789",
        "gas": "0x1c1ff",
        "value": "0x0",
        "input": "0x4000aea00000000000000000000000009ddfaca8183c41ad55329bdeed9f6a8d53168b1b00000000000000000000000000000000000000000000000029a2241af62c000000000000000000000000000000000000000000000000000000000000000000600000000000000000000000000000000000000000000000000000000000000020ba2601fa5364be89bc2b7751c65d50e663bb2e5097502c6e0bbd6b9fe7a0a9c8",
        "nonce": "0x0",
        "chainId": "0xaa36a7"
      },
      "additionalContracts": [],
      "isFixedGasLimit": false
    }
  ],
  "receipts": [
    {
      "status": "0x1",
      "cumulativeGasUsed": "0x1c2b78c",
      "logs": [
        {
          "address": "0x779877a7b0d9e8603169ddbd7836e478b4624789",
          "topics": [
            "0xddf252ad1be2c89b69c2b068fc378daa952ba7f163c4a11628f55a4df523b3ef",
            "0x0000000000000000000000006322784397059eb83b2d1a5834a581060b5cc951",
            "0x0000000000000000000000009ddfaca8183c41ad55329bdeed9f6a8d53168b1b"
          ],
          "data": "0x00000000000000000000000000000000000000000000000029a2241af62c0000",
          "blockHash": "0xb0849fe11b2ee8edd9e290284ea2f816f349db0ed35de2114bd57db88a196205",
          "blockNumber": "0x673080",
          "transactionHash": "0xf41b0445c0a2dd618b885f18a929b321bdefbf343ad17d47775b87cf78d334d8",
          "transactionIndex": "0x76",
          "logIndex": "0xd1",
          "removed": false
        },
        {
          "address": "0x779877a7b0d9e8603169ddbd7836e478b4624789",
          "topics": [
            "0xe19260aff97b920c7df27010903aeb9c8d2be5d310a2c67824cf3f15396e4c16",
            "0x0000000000000000000000006322784397059eb83b2d1a5834a581060b5cc951",
            "0x0000000000000000000000009ddfaca8183c41ad55329bdeed9f6a8d53168b1b"
          ],
          "data": "0x00000000000000000000000000000000000000000000000029a2241af62c000000000000000000000000000000000000000000000000000000000000000000400000000000000000000000000000000000000000000000000000000000000020ba2601fa5364be89bc2b7751c65d50e663bb2e5097502c6e0bbd6b9fe7a0a9c8",
          "blockHash": "0xb0849fe11b2ee8edd9e290284ea2f816f349db0ed35de2114bd57db88a196205",
          "blockNumber": "0x673080",
          "transactionHash": "0xf41b0445c0a2dd618b885f18a929b321bdefbf343ad17d47775b87cf78d334d8",
          "transactionIndex": "0x76",
          "logIndex": "0xd2",
          "removed": false
        },
        {
          "address": "0x9ddfaca8183c41ad55329bdeed9f6a8d53168b1b",
          "topics": [
            "0x1ced9348ff549fceab2ac57cd3a9de38edaaab274b725ee82c23e8fc8c4eec7a",
            "0xba2601fa5364be89bc2b7751c65d50e663bb2e5097502c6e0bbd6b9fe7a0a9c8"
          ],
          "data": "0x000000000000000000000000000000000000000000000000000000000000000000000000000000000000000000000000000000000000000029a2241af62c0000",
          "blockHash": "0xb0849fe11b2ee8edd9e290284ea2f816f349db0ed35de2114bd57db88a196205",
          "blockNumber": "0x673080",
          "transactionHash": "0xf41b0445c0a2dd618b885f18a929b321bdefbf343ad17d47775b87cf78d334d8",
          "transactionIndex": "0x76",
          "logIndex": "0xd3",
          "removed": false
        }
      ],
      "logsBloom": "0x00000004000000000000000000000000000000000020000000000000020000000000000000000000000000000000000000000000000000000000000000000000000000000000000000000008000000000000000000000000000020000020000008000000000000000000000000000000000000200000000000000010000044000000000000000000000000010000800000000020000000004000000000000000000000000000000000000000010000000000000000000000000004000000000000000002000000000000000000000000000000000000000100000000000000000010000000000000800000000000000000002000000000000000000000000002",
      "type": "0x2",
      "transactionHash": "0xf41b0445c0a2dd618b885f18a929b321bdefbf343ad17d47775b87cf78d334d8",
      "transactionIndex": "0x76",
      "blockHash": "0xb0849fe11b2ee8edd9e290284ea2f816f349db0ed35de2114bd57db88a196205",
      "blockNumber": "0x673080",
      "gasUsed": "0x133b1",
      "effectiveGasPrice": "0x2f84233bf2",
      "from": "0x6322784397059eb83b2d1a5834a581060b5cc951",
      "to": "0x779877a7b0d9e8603169ddbd7836e478b4624789",
      "contractAddress": null
    }
  ],
  "libraries": [],
  "pending": [],
  "returns": {},
  "timestamp": 1727347133,
  "chain": 11155111,
  "commit": "60a8eca"
}